{
  "address": "0x9A16eB158d9230ffFde19ab495d0145E93d8f2a8",
  "abi": [
    {
      "inputs": [],
      "stateMutability": "nonpayable",
      "type": "constructor"
    },
    {
      "anonymous": false,
      "inputs": [
        {
          "indexed": false,
          "internalType": "address",
          "name": "operator",
          "type": "address"
        },
        {
          "indexed": false,
          "internalType": "bytes32",
          "name": "key",
          "type": "bytes32"
        },
        {
          "indexed": false,
          "internalType": "uint64",
          "name": "networkId",
          "type": "uint64"
        }
      ],
      "name": "ContractDeleted",
      "type": "event"
    },
    {
      "anonymous": false,
      "inputs": [
        {
          "indexed": false,
          "internalType": "address",
          "name": "operator",
          "type": "address"
        },
        {
          "indexed": false,
          "internalType": "bytes32",
          "name": "key",
          "type": "bytes32"
        },
        {
          "indexed": false,
          "internalType": "uint64",
          "name": "networkId",
          "type": "uint64"
        },
        {
          "indexed": false,
          "internalType": "address",
          "name": "contractAddress",
          "type": "address"
        }
      ],
      "name": "ContractRegistered",
      "type": "event"
    },
    {
      "anonymous": false,
      "inputs": [
        {
          "indexed": true,
          "internalType": "bytes32",
          "name": "role",
          "type": "bytes32"
        },
        {
          "indexed": true,
          "internalType": "bytes32",
          "name": "previousAdminRole",
          "type": "bytes32"
        },
        {
          "indexed": true,
          "internalType": "bytes32",
          "name": "newAdminRole",
          "type": "bytes32"
        }
      ],
      "name": "RoleAdminChanged",
      "type": "event"
    },
    {
      "anonymous": false,
      "inputs": [
        {
          "indexed": true,
          "internalType": "bytes32",
          "name": "role",
          "type": "bytes32"
        },
        {
          "indexed": true,
          "internalType": "address",
          "name": "account",
          "type": "address"
        },
        {
          "indexed": true,
          "internalType": "address",
          "name": "sender",
          "type": "address"
        }
      ],
      "name": "RoleGranted",
      "type": "event"
    },
    {
      "anonymous": false,
      "inputs": [
        {
          "indexed": true,
          "internalType": "bytes32",
          "name": "role",
          "type": "bytes32"
        },
        {
          "indexed": true,
          "internalType": "address",
          "name": "account",
          "type": "address"
        },
        {
          "indexed": true,
          "internalType": "address",
          "name": "sender",
          "type": "address"
        }
      ],
      "name": "RoleRevoked",
      "type": "event"
    },
    {
      "inputs": [],
      "name": "ADMIN_ROLE",
      "outputs": [
        {
          "internalType": "bytes32",
          "name": "",
          "type": "bytes32"
        }
      ],
      "stateMutability": "view",
      "type": "function"
    },
    {
      "inputs": [],
      "name": "DEFAULT_ADMIN_ROLE",
      "outputs": [
        {
          "internalType": "bytes32",
          "name": "",
          "type": "bytes32"
        }
      ],
      "stateMutability": "view",
      "type": "function"
    },
    {
      "inputs": [],
      "name": "REGISTRAR_ROLE",
      "outputs": [
        {
          "internalType": "bytes32",
          "name": "",
          "type": "bytes32"
        }
      ],
      "stateMutability": "view",
      "type": "function"
    },
    {
      "inputs": [
        {
          "internalType": "string",
          "name": "key",
          "type": "string"
        },
        {
          "internalType": "uint64",
          "name": "networkId",
          "type": "uint64"
        }
      ],
      "name": "deleteContract",
      "outputs": [],
      "stateMutability": "nonpayable",
      "type": "function"
    },
    {
      "inputs": [
        {
          "internalType": "bytes32",
          "name": "key",
          "type": "bytes32"
        },
        {
          "internalType": "uint64",
          "name": "networkId",
          "type": "uint64"
        }
      ],
      "name": "deleteContractByHash",
      "outputs": [],
      "stateMutability": "nonpayable",
      "type": "function"
    },
    {
      "inputs": [
        {
          "internalType": "string",
          "name": "key",
          "type": "string"
        },
        {
          "internalType": "uint64",
          "name": "networkId",
          "type": "uint64"
        }
      ],
      "name": "getContract",
      "outputs": [
        {
          "internalType": "address",
          "name": "",
          "type": "address"
        }
      ],
      "stateMutability": "view",
      "type": "function"
    },
    {
      "inputs": [
        {
          "internalType": "bytes32",
          "name": "key",
          "type": "bytes32"
        },
        {
          "internalType": "uint64",
          "name": "networkId",
          "type": "uint64"
        }
      ],
      "name": "getContractByHash",
      "outputs": [
        {
          "internalType": "address",
          "name": "",
          "type": "address"
        }
      ],
      "stateMutability": "view",
      "type": "function"
    },
    {
      "inputs": [
        {
          "internalType": "string",
          "name": "key",
          "type": "string"
        }
      ],
      "name": "getContracts",
      "outputs": [
        {
          "components": [
            {
              "internalType": "uint64",
              "name": "networkId",
              "type": "uint64"
            },
            {
              "internalType": "address",
              "name": "contractAddress",
              "type": "address"
            }
          ],
          "internalType": "struct ContractItem[]",
          "name": "",
          "type": "tuple[]"
        }
      ],
      "stateMutability": "view",
      "type": "function"
    },
    {
      "inputs": [
        {
          "internalType": "bytes32",
          "name": "key",
          "type": "bytes32"
        }
      ],
      "name": "getContractsByHash",
      "outputs": [
        {
          "components": [
            {
              "internalType": "uint64",
              "name": "networkId",
              "type": "uint64"
            },
            {
              "internalType": "address",
              "name": "contractAddress",
              "type": "address"
            }
          ],
          "internalType": "struct ContractItem[]",
          "name": "",
          "type": "tuple[]"
        }
      ],
      "stateMutability": "view",
      "type": "function"
    },
    {
      "inputs": [
        {
          "internalType": "string",
          "name": "key",
          "type": "string"
        }
      ],
      "name": "getHashForKey",
      "outputs": [
        {
          "internalType": "bytes32",
          "name": "",
          "type": "bytes32"
        }
      ],
      "stateMutability": "pure",
      "type": "function"
    },
    {
      "inputs": [
        {
          "internalType": "bytes32",
          "name": "role",
          "type": "bytes32"
        }
      ],
      "name": "getRoleAdmin",
      "outputs": [
        {
          "internalType": "bytes32",
          "name": "",
          "type": "bytes32"
        }
      ],
      "stateMutability": "view",
      "type": "function"
    },
    {
      "inputs": [
        {
          "internalType": "bytes32",
          "name": "role",
          "type": "bytes32"
        },
        {
          "internalType": "uint256",
          "name": "index",
          "type": "uint256"
        }
      ],
      "name": "getRoleMember",
      "outputs": [
        {
          "internalType": "address",
          "name": "",
          "type": "address"
        }
      ],
      "stateMutability": "view",
      "type": "function"
    },
    {
      "inputs": [
        {
          "internalType": "bytes32",
          "name": "role",
          "type": "bytes32"
        }
      ],
      "name": "getRoleMemberCount",
      "outputs": [
        {
          "internalType": "uint256",
          "name": "",
          "type": "uint256"
        }
      ],
      "stateMutability": "view",
      "type": "function"
    },
    {
      "inputs": [
        {
          "internalType": "bytes32",
          "name": "role",
          "type": "bytes32"
        },
        {
          "internalType": "address",
          "name": "account",
          "type": "address"
        }
      ],
      "name": "grantRole",
      "outputs": [],
      "stateMutability": "nonpayable",
      "type": "function"
    },
    {
      "inputs": [
        {
          "internalType": "bytes32",
          "name": "role",
          "type": "bytes32"
        },
        {
          "internalType": "address",
          "name": "account",
          "type": "address"
        }
      ],
      "name": "hasRole",
      "outputs": [
        {
          "internalType": "bool",
          "name": "",
          "type": "bool"
        }
      ],
      "stateMutability": "view",
      "type": "function"
    },
    {
      "inputs": [
        {
          "internalType": "string",
          "name": "key",
          "type": "string"
        },
        {
          "internalType": "uint64",
          "name": "networkId",
          "type": "uint64"
        },
        {
          "internalType": "address",
          "name": "_address",
          "type": "address"
        }
      ],
      "name": "registerContract",
      "outputs": [],
      "stateMutability": "nonpayable",
      "type": "function"
    },
    {
      "inputs": [
        {
          "internalType": "bytes32",
          "name": "key",
          "type": "bytes32"
        },
        {
          "internalType": "uint64",
          "name": "networkId",
          "type": "uint64"
        },
        {
          "internalType": "address",
          "name": "_address",
          "type": "address"
        }
      ],
      "name": "registerContractByHash",
      "outputs": [],
      "stateMutability": "nonpayable",
      "type": "function"
    },
    {
      "inputs": [
        {
          "internalType": "bytes32",
          "name": "role",
          "type": "bytes32"
        },
        {
          "internalType": "address",
          "name": "account",
          "type": "address"
        }
      ],
      "name": "renounceRole",
      "outputs": [],
      "stateMutability": "nonpayable",
      "type": "function"
    },
    {
      "inputs": [
        {
          "internalType": "bytes32",
          "name": "role",
          "type": "bytes32"
        },
        {
          "internalType": "address",
          "name": "account",
          "type": "address"
        }
      ],
      "name": "revokeRole",
      "outputs": [],
      "stateMutability": "nonpayable",
      "type": "function"
    },
    {
      "inputs": [
        {
          "internalType": "bytes4",
          "name": "interfaceId",
          "type": "bytes4"
        }
      ],
      "name": "supportsInterface",
      "outputs": [
        {
          "internalType": "bool",
          "name": "",
          "type": "bool"
        }
      ],
      "stateMutability": "view",
      "type": "function"
    }
  ],
  "transactionHash": "0x43099eb41e7e9745ff58e8de9d9fe8a92420cfef827e9d287d3a883c55931adc",
  "args": [],
  "numDeployments": 1,
  "solcInputHash": "38715cd77565230e7888afc2917611c2",
  "bytecode": "0x60806040523480156200001157600080fd5b506200001f60003362000051565b6200004b7fedcc084d3dcd65a1f7f23c65c46722faca6953d28e43150a467cf43e5c3092383362000051565b620001b6565b6200005d828262000061565b5050565b620000788282620000a460201b62000cb11760201c565b60008281526001602090815260409091206200009f91839062000d4f62000144821b17901c565b505050565b6000828152602081815260408083206001600160a01b038516845290915290205460ff166200005d576000828152602081815260408083206001600160a01b03851684529091529020805460ff19166001179055620001003390565b6001600160a01b0316816001600160a01b0316837f2f8788117e7eff1d82e926ec794901d17c78024a50270940304540a733656f0d60405160405180910390a45050565b60006200015b836001600160a01b03841662000164565b90505b92915050565b6000818152600183016020526040812054620001ad575081546001818101845560008481526020808220909301849055845484825282860190935260409020919091556200015e565b5060006200015e565b6118a980620001c66000396000f3fe608060405234801561001057600080fd5b506004361061016c5760003560e01c80639010d07c116100cd578063ca15c87311610081578063f276177711610066578063f276177714610368578063f44962fc1461037b578063f68e95531461038e57600080fd5b8063ca15c87314610342578063d547741f1461035557600080fd5b8063a14d7155116100b2578063a14d7155146102da578063a217fddf1461031a578063a40221771461032257600080fd5b80639010d07c1461029057806391d14854146102a357600080fd5b80634ca5b769116101245780635443440e116101095780635443440e1461024357806375b238fc14610256578063817563981461027d57600080fd5b80634ca5b7691461020557806352f31cc21461021857600080fd5b8063248a9ca311610155578063248a9ca3146101ba5780632f2ff15d146101dd57806336568abe146101f257600080fd5b806301ffc9a7146101715780630e807b4c14610199575b600080fd5b61018461017f3660046113c3565b6103b5565b60405190151581526020015b60405180910390f35b6101ac6101a7366004611490565b6103f9565b604051908152602001610190565b6101ac6101c83660046114cd565b60009081526020819052604090206001015490565b6101f06101eb366004611502565b610429565b005b6101f0610200366004611502565b610453565b6101f0610213366004611546565b6104e4565b61022b610226366004611582565b61078a565b6040516001600160a01b039091168152602001610190565b6101f0610251366004611582565b6107d2565b6101ac7fa49807205ce4d355092ef5a8a18f56e8913cf4a201fbe287825b095693c2177581565b6101f061028b3660046115c7565b61089c565b61022b61029e3660046115ea565b610a5b565b6101846102b1366004611502565b6000918252602082815260408084206001600160a01b0393909316845291905290205460ff1690565b61022b6102e83660046115c7565b600091825260026020908152604080842067ffffffffffffffff9390931684529190529020546001600160a01b031690565b6101ac600081565b6103356103303660046114cd565b610a7a565b604051610190919061160c565b6101ac6103503660046114cd565b610b0f565b6101f0610363366004611502565b610b26565b6101f061037636600461166e565b610b4b565b610335610389366004611490565b610c20565b6101ac7fedcc084d3dcd65a1f7f23c65c46722faca6953d28e43150a467cf43e5c30923881565b60006001600160e01b031982167f5a05180f0000000000000000000000000000000000000000000000000000000014806103f357506103f382610d64565b92915050565b60008160405160200161040c91906116e1565b604051602081830303815290604052805190602001209050919050565b60008281526020819052604090206001015461044481610dcb565b61044e8383610dd8565b505050565b6001600160a01b03811633146104d65760405162461bcd60e51b815260206004820152602f60248201527f416363657373436f6e74726f6c3a2063616e206f6e6c792072656e6f756e636560448201527f20726f6c657320666f722073656c66000000000000000000000000000000000060648201526084015b60405180910390fd5b6104e08282610dfa565b5050565b6104ef6000336102b1565b8061051f575061051f7fedcc084d3dcd65a1f7f23c65c46722faca6953d28e43150a467cf43e5c309238336102b1565b61059b5760405162461bcd60e51b815260206004820152604160248201527f5446436f6e747261637452656769737472793a2063616c6c657220686173206e60448201527f6f20676f7665726e6f7220726f6c6520616e64206e6f2061646d696e20726f6c6064820152606560f81b608482015260a4016104cd565b600083815260026020908152604080832067ffffffffffffffff861684529091528120805473ffffffffffffffffffffffffffffffffffffffff19166001600160a01b038416179055805b6000858152600360205260409020548110156106b4576000858152600360205260409020805467ffffffffffffffff8616919083908110610629576106296116fd565b60009182526020909120015467ffffffffffffffff1614156106a2576000858152600360205260409020805484919083908110610668576106686116fd565b9060005260206000200160000160086101000a8154816001600160a01b0302191690836001600160a01b03160217905550600191506106b4565b806106ac81611729565b9150506105e6565b508061072c576000848152600360209081526040808320815180830190925267ffffffffffffffff80881683526001600160a01b038088168486019081528354600181018555938752949095209251929091018054935190941668010000000000000000026001600160e01b03199093169116171790555b604080513381526020810186905267ffffffffffffffff8516818301526001600160a01b038416606082015290517f899bf806279d494a52a1c15f2c0e798a4724f63656a78911b6560d49ceca53fd9181900360800190a150505050565b600060026000610799856103f9565b81526020808201929092526040908101600090812067ffffffffffffffff861682529092529020546001600160a01b0316905092915050565b6107dd6000336102b1565b8061080d575061080d7fedcc084d3dcd65a1f7f23c65c46722faca6953d28e43150a467cf43e5c309238336102b1565b6108895760405162461bcd60e51b815260206004820152604160248201527f5446436f6e747261637452656769737472793a2063616c6c657220686173206e60448201527f6f20676f7665726e6f7220726f6c6520616e64206e6f2061646d696e20726f6c6064820152606560f81b608482015260a4016104cd565b6000610894836103f9565b905061044e81835b6108a76000336102b1565b806108d757506108d77fedcc084d3dcd65a1f7f23c65c46722faca6953d28e43150a467cf43e5c309238336102b1565b6109535760405162461bcd60e51b815260206004820152604160248201527f5446436f6e747261637452656769737472793a2063616c6c657220686173206e60448201527f6f20676f7665726e6f7220726f6c6520616e64206e6f2061646d696e20726f6c6064820152606560f81b608482015260a4016104cd565b600082815260026020908152604080832067ffffffffffffffff851684529091528120805473ffffffffffffffffffffffffffffffffffffffff191690555b600083815260036020526040902054811015610a0d576000838152600360205260409020805467ffffffffffffffff84169190839081106109d5576109d56116fd565b60009182526020909120015467ffffffffffffffff1614156109fb576109fb8382610e1c565b80610a0581611729565b915050610992565b50604080513381526020810184905267ffffffffffffffff83168183015290517fd188711f58747270819a812de674e27df11f7c1d76b374e6e4afb87ad7de33469181900360600190a15050565b6000828152600160205260408120610a739083610f47565b9392505050565b606060036000838152602001908152602001600020805480602002602001604051908101604052809291908181526020016000905b82821015610b04576000848152602090819020604080518082019091529084015467ffffffffffffffff811682526801000000000000000090046001600160a01b031681830152825260019092019101610aaf565b505050509050919050565b60008181526001602052604081206103f390610f53565b600082815260208190526040902060010154610b4181610dcb565b61044e8383610dfa565b610b566000336102b1565b80610b865750610b867fedcc084d3dcd65a1f7f23c65c46722faca6953d28e43150a467cf43e5c309238336102b1565b610c025760405162461bcd60e51b815260206004820152604160248201527f5446436f6e747261637452656769737472793a2063616c6c657220686173206e60448201527f6f20676f7665726e6f7220726f6c6520616e64206e6f2061646d696e20726f6c6064820152606560f81b608482015260a4016104cd565b6000610c0d846103f9565b9050610c1a8184846104e4565b50505050565b606060036000610c2f846103f9565b81526020019081526020016000208054806020026020016040519081016040528092919081815260200160009082821015610b04576000848152602090819020604080518082019091529084015467ffffffffffffffff811682526801000000000000000090046001600160a01b031681830152825260019092019101610aaf565b6000828152602081815260408083206001600160a01b038516845290915290205460ff166104e0576000828152602081815260408083206001600160a01b03851684529091529020805460ff19166001179055610d0b3390565b6001600160a01b0316816001600160a01b0316837f2f8788117e7eff1d82e926ec794901d17c78024a50270940304540a733656f0d60405160405180910390a45050565b6000610a73836001600160a01b038416610f5d565b60006001600160e01b031982167f7965db0b0000000000000000000000000000000000000000000000000000000014806103f357507f01ffc9a7000000000000000000000000000000000000000000000000000000006001600160e01b03198316146103f3565b610dd58133610fac565b50565b610de28282610cb1565b600082815260016020526040902061044e9082610d4f565b610e04828261101f565b600082815260016020526040902061044e908261109e565b805b600083815260036020526040902054610e3990600190611744565b811015610f03576000838152600360205260409020610e5982600161175b565b81548110610e6957610e696116fd565b90600052602060002001600360008581526020019081526020016000208281548110610e9757610e976116fd565b6000918252602090912082549101805467ffffffffffffffff90921667ffffffffffffffff1983168117825592546001600160e01b031990921690921768010000000000000000918290046001600160a01b031690910217905580610efb81611729565b915050610e1e565b506000828152600360205260409020805480610f2157610f21611773565b600082815260209020810160001990810180546001600160e01b03191690550190555050565b6000610a7383836110b3565b60006103f3825490565b6000818152600183016020526040812054610fa4575081546001818101845560008481526020808220909301849055845484825282860190935260409020919091556103f3565b5060006103f3565b6000828152602081815260408083206001600160a01b038516845290915290205460ff166104e057610fdd816110dd565b610fe88360206110ef565b604051602001610ff9929190611789565b60408051601f198184030181529082905262461bcd60e51b82526104cd9160040161180a565b6000828152602081815260408083206001600160a01b038516845290915290205460ff16156104e0576000828152602081815260408083206001600160a01b0385168085529252808320805460ff1916905551339285917ff6391f5c32d9c69d2a47ea670b442974b53935d1edc7fd64eb21e047a839171b9190a45050565b6000610a73836001600160a01b0384166112d0565b60008260000182815481106110ca576110ca6116fd565b9060005260206000200154905092915050565b60606103f36001600160a01b03831660145b606060006110fe83600261183d565b61110990600261175b565b67ffffffffffffffff811115611121576111216113ed565b6040519080825280601f01601f19166020018201604052801561114b576020820181803683370190505b5090507f300000000000000000000000000000000000000000000000000000000000000081600081518110611182576111826116fd565b60200101906001600160f81b031916908160001a9053507f7800000000000000000000000000000000000000000000000000000000000000816001815181106111cd576111cd6116fd565b60200101906001600160f81b031916908160001a90535060006111f184600261183d565b6111fc90600161175b565b90505b6001811115611281577f303132333435363738396162636465660000000000000000000000000000000085600f166010811061123d5761123d6116fd565b1a60f81b828281518110611253576112536116fd565b60200101906001600160f81b031916908160001a90535060049490941c9361127a8161185c565b90506111ff565b508315610a735760405162461bcd60e51b815260206004820181905260248201527f537472696e67733a20686578206c656e67746820696e73756666696369656e7460448201526064016104cd565b600081815260018301602052604081205480156113b95760006112f4600183611744565b855490915060009061130890600190611744565b905081811461136d576000866000018281548110611328576113286116fd565b906000526020600020015490508087600001848154811061134b5761134b6116fd565b6000918252602080832090910192909255918252600188019052604090208390555b855486908061137e5761137e611773565b6001900381819060005260206000200160009055905585600101600086815260200190815260200160002060009055600193505050506103f3565b60009150506103f3565b6000602082840312156113d557600080fd5b81356001600160e01b031981168114610a7357600080fd5b634e487b7160e01b600052604160045260246000fd5b600082601f83011261141457600080fd5b813567ffffffffffffffff8082111561142f5761142f6113ed565b604051601f8301601f19908116603f01168101908282118183101715611457576114576113ed565b8160405283815286602085880101111561147057600080fd5b836020870160208301376000602085830101528094505050505092915050565b6000602082840312156114a257600080fd5b813567ffffffffffffffff8111156114b957600080fd5b6114c584828501611403565b949350505050565b6000602082840312156114df57600080fd5b5035919050565b80356001600160a01b03811681146114fd57600080fd5b919050565b6000806040838503121561151557600080fd5b82359150611525602084016114e6565b90509250929050565b803567ffffffffffffffff811681146114fd57600080fd5b60008060006060848603121561155b57600080fd5b8335925061156b6020850161152e565b9150611579604085016114e6565b90509250925092565b6000806040838503121561159557600080fd5b823567ffffffffffffffff8111156115ac57600080fd5b6115b885828601611403565b9250506115256020840161152e565b600080604083850312156115da57600080fd5b823591506115256020840161152e565b600080604083850312156115fd57600080fd5b50508035926020909101359150565b602080825282518282018190526000919060409081850190868401855b82811015611661578151805167ffffffffffffffff1685528601516001600160a01b0316868501529284019290850190600101611629565b5091979650505050505050565b60008060006060848603121561168357600080fd5b833567ffffffffffffffff81111561169a57600080fd5b6116a686828701611403565b93505061156b6020850161152e565b60005b838110156116d05781810151838201526020016116b8565b83811115610c1a5750506000910152565b600082516116f38184602087016116b5565b9190910192915050565b634e487b7160e01b600052603260045260246000fd5b634e487b7160e01b600052601160045260246000fd5b600060001982141561173d5761173d611713565b5060010190565b60008282101561175657611756611713565b500390565b6000821982111561176e5761176e611713565b500190565b634e487b7160e01b600052603160045260246000fd5b7f416363657373436f6e74726f6c3a206163636f756e74200000000000000000008152600083516117c18160178501602088016116b5565b7f206973206d697373696e6720726f6c652000000000000000000000000000000060179184019182015283516117fe8160288401602088016116b5565b01602801949350505050565b60208152600082518060208401526118298160408501602087016116b5565b601f01601f19169190910160400192915050565b600081600019048311821515161561185757611857611713565b500290565b60008161186b5761186b611713565b50600019019056fea26469706673582212203437364f933b75e04c963761753272eb32e5d51f8f61c31c804274533b2da33e64736f6c634300080c0033",
  "devdoc": {
    "kind": "dev",
    "methods": {
      "getRoleAdmin(bytes32)": {
        "details": "Returns the admin role that controls `role`. See {grantRole} and {revokeRole}. To change a role's admin, use {_setRoleAdmin}."
      },
      "getRoleMember(bytes32,uint256)": {
        "details": "Returns one of the accounts that have `role`. `index` must be a value between 0 and {getRoleMemberCount}, non-inclusive. Role bearers are not sorted in any particular way, and their ordering may change at any point. WARNING: When using {getRoleMember} and {getRoleMemberCount}, make sure you perform all queries on the same block. See the following https://forum.openzeppelin.com/t/iterating-over-elements-on-enumerableset-in-openzeppelin-contracts/2296[forum post] for more information."
      },
      "getRoleMemberCount(bytes32)": {
        "details": "Returns the number of accounts that have `role`. Can be used together with {getRoleMember} to enumerate all bearers of a role."
      },
      "grantRole(bytes32,address)": {
        "details": "Grants `role` to `account`. If `account` had not been already granted `role`, emits a {RoleGranted} event. Requirements: - the caller must have ``role``'s admin role. May emit a {RoleGranted} event."
      },
      "hasRole(bytes32,address)": {
        "details": "Returns `true` if `account` has been granted `role`."
      },
      "renounceRole(bytes32,address)": {
        "details": "Revokes `role` from the calling account. Roles are often managed via {grantRole} and {revokeRole}: this function's purpose is to provide a mechanism for accounts to lose their privileges if they are compromised (such as when a trusted device is misplaced). If the calling account had been revoked `role`, emits a {RoleRevoked} event. Requirements: - the caller must be `account`. May emit a {RoleRevoked} event."
      },
      "revokeRole(bytes32,address)": {
        "details": "Revokes `role` from `account`. If `account` had been granted `role`, emits a {RoleRevoked} event. Requirements: - the caller must have ``role``'s admin role. May emit a {RoleRevoked} event."
      },
      "supportsInterface(bytes4)": {
        "details": "See {IERC165-supportsInterface}."
      }
    },
    "version": 1
  },
  "userdoc": {
    "kind": "user",
    "methods": {},
    "version": 1
  },
  "storageLayout": {
    "storage": [
      {
        "astId": 24,
        "contract": "contracts/TFContractRegistry.sol:TFContractRegistry",
        "label": "_roles",
        "offset": 0,
        "slot": "0",
        "type": "t_mapping(t_bytes32,t_struct(RoleData)19_storage)"
      },
      {
        "astId": 334,
        "contract": "contracts/TFContractRegistry.sol:TFContractRegistry",
        "label": "_roleMembers",
        "offset": 0,
        "slot": "1",
        "type": "t_mapping(t_bytes32,t_struct(AddressSet)1962_storage)"
      },
      {
        "astId": 2314,
        "contract": "contracts/TFContractRegistry.sol:TFContractRegistry",
        "label": "_contractsByNetworkId",
        "offset": 0,
        "slot": "2",
        "type": "t_mapping(t_bytes32,t_mapping(t_uint64,t_address))"
      },
      {
        "astId": 2320,
        "contract": "contracts/TFContractRegistry.sol:TFContractRegistry",
        "label": "_contracts",
        "offset": 0,
        "slot": "3",
        "type": "t_mapping(t_bytes32,t_array(t_struct(ContractItem)2258_storage)dyn_storage)"
      }
    ],
    "types": {
      "t_address": {
        "encoding": "inplace",
        "label": "address",
        "numberOfBytes": "20"
      },
      "t_array(t_bytes32)dyn_storage": {
        "base": "t_bytes32",
        "encoding": "dynamic_array",
        "label": "bytes32[]",
        "numberOfBytes": "32"
      },
      "t_array(t_struct(ContractItem)2258_storage)dyn_storage": {
        "base": "t_struct(ContractItem)2258_storage",
        "encoding": "dynamic_array",
        "label": "struct ContractItem[]",
        "numberOfBytes": "32"
      },
      "t_bool": {
        "encoding": "inplace",
        "label": "bool",
        "numberOfBytes": "1"
      },
      "t_bytes32": {
        "encoding": "inplace",
        "label": "bytes32",
        "numberOfBytes": "32"
      },
      "t_mapping(t_address,t_bool)": {
        "encoding": "mapping",
        "key": "t_address",
        "label": "mapping(address => bool)",
        "numberOfBytes": "32",
        "value": "t_bool"
      },
      "t_mapping(t_bytes32,t_array(t_struct(ContractItem)2258_storage)dyn_storage)": {
        "encoding": "mapping",
        "key": "t_bytes32",
        "label": "mapping(bytes32 => struct ContractItem[])",
        "numberOfBytes": "32",
        "value": "t_array(t_struct(ContractItem)2258_storage)dyn_storage"
      },
      "t_mapping(t_bytes32,t_mapping(t_uint64,t_address))": {
        "encoding": "mapping",
        "key": "t_bytes32",
        "label": "mapping(bytes32 => mapping(uint64 => address))",
        "numberOfBytes": "32",
        "value": "t_mapping(t_uint64,t_address)"
      },
      "t_mapping(t_bytes32,t_struct(AddressSet)1962_storage)": {
        "encoding": "mapping",
        "key": "t_bytes32",
        "label": "mapping(bytes32 => struct EnumerableSet.AddressSet)",
        "numberOfBytes": "32",
        "value": "t_struct(AddressSet)1962_storage"
      },
      "t_mapping(t_bytes32,t_struct(RoleData)19_storage)": {
        "encoding": "mapping",
        "key": "t_bytes32",
        "label": "mapping(bytes32 => struct AccessControl.RoleData)",
        "numberOfBytes": "32",
        "value": "t_struct(RoleData)19_storage"
      },
      "t_mapping(t_bytes32,t_uint256)": {
        "encoding": "mapping",
        "key": "t_bytes32",
        "label": "mapping(bytes32 => uint256)",
        "numberOfBytes": "32",
        "value": "t_uint256"
      },
      "t_mapping(t_uint64,t_address)": {
        "encoding": "mapping",
        "key": "t_uint64",
        "label": "mapping(uint64 => address)",
        "numberOfBytes": "32",
        "value": "t_address"
      },
      "t_struct(AddressSet)1962_storage": {
        "encoding": "inplace",
        "label": "struct EnumerableSet.AddressSet",
        "members": [
          {
            "astId": 1961,
            "contract": "contracts/TFContractRegistry.sol:TFContractRegistry",
            "label": "_inner",
            "offset": 0,
            "slot": "0",
            "type": "t_struct(Set)1647_storage"
          }
        ],
        "numberOfBytes": "64"
      },
      "t_struct(ContractItem)2258_storage": {
        "encoding": "inplace",
        "label": "struct ContractItem",
        "members": [
          {
            "astId": 2255,
            "contract": "contracts/TFContractRegistry.sol:TFContractRegistry",
            "label": "networkId",
            "offset": 0,
            "slot": "0",
            "type": "t_uint64"
          },
          {
            "astId": 2257,
            "contract": "contracts/TFContractRegistry.sol:TFContractRegistry",
            "label": "contractAddress",
            "offset": 8,
            "slot": "0",
            "type": "t_address"
          }
        ],
        "numberOfBytes": "32"
      },
      "t_struct(RoleData)19_storage": {
        "encoding": "inplace",
        "label": "struct AccessControl.RoleData",
        "members": [
          {
            "astId": 16,
            "contract": "contracts/TFContractRegistry.sol:TFContractRegistry",
            "label": "members",
            "offset": 0,
            "slot": "0",
            "type": "t_mapping(t_address,t_bool)"
          },
          {
            "astId": 18,
            "contract": "contracts/TFContractRegistry.sol:TFContractRegistry",
            "label": "adminRole",
            "offset": 0,
            "slot": "1",
            "type": "t_bytes32"
          }
        ],
        "numberOfBytes": "64"
      },
      "t_struct(Set)1647_storage": {
        "encoding": "inplace",
        "label": "struct EnumerableSet.Set",
        "members": [
          {
            "astId": 1642,
            "contract": "contracts/TFContractRegistry.sol:TFContractRegistry",
            "label": "_values",
            "offset": 0,
            "slot": "0",
            "type": "t_array(t_bytes32)dyn_storage"
          },
          {
            "astId": 1646,
            "contract": "contracts/TFContractRegistry.sol:TFContractRegistry",
            "label": "_indexes",
            "offset": 0,
            "slot": "1",
            "type": "t_mapping(t_bytes32,t_uint256)"
          }
        ],
        "numberOfBytes": "64"
      },
      "t_uint256": {
        "encoding": "inplace",
        "label": "uint256",
        "numberOfBytes": "32"
      },
      "t_uint64": {
        "encoding": "inplace",
        "label": "uint64",
        "numberOfBytes": "8"
      }
    }
  }
}